:100000000C94B0040C949C080C9475080C94D804BF
:100010000C94D8040C94D8040C94D8040C94D804F0
:100020000C94D8040C94D8040C94D8040C94AE0B03
:100030000C94D8040C94D8040C94D8040C94D804D0
:100040000C942B080C94D8040C9447070C942107AB
:100050000C94D8040C94D8040C94D8040C94D804B0
:100060000C946F0C0C94D804084AD73B3BCE016E1D
:1000700084BCBFFDC12F3D6C74319ABD56833DDAFF
:100080003D00C77F11BED9E4BB4C3E916BAAAABE0E
:10009000000000803F0001B202FFFF01900409232D
:1000A000A135016A0206000160080000000000009E
:1000B00000000060044000000001620200000060D7
:1000C0000400400000037B034CCD6C03AB033656A9
:1000D0007600680402CB47A202180400058BC10118
:1000E0000C0400000000037F060CC92C97979703AF
:1000F0008903264666006C022000024004000000CE
:100100000002440400000000024804000000000255
:100110004C040000000002500400000000025404DF
:100120000000000002580400000000025C0400000F
:10013000000002BC040000000001EC0400004000CC
:10014000037F060CC92C9797970402030D355D04B5
:100150000904872D353D00A301000000000107863A
:1001600001FE074105F120283038077E013007469F
:10017000019A074704F1283038076C04F128303819
:100180000216020001FB00003E000B0036000100D9
:10019000020003000000650054FFEF0000FA800039
:1001A0000B128200010002000000000000000000AD
:1001B000000000000000280000FFFF4581FFFFFA5B
:1001C0007200000000000003E80000000100017F51
:1001D000FFFFFE8001001B00000000000000000087
:1001E0000000000000003E03304000000002CAE3AF
:1001F000093E8000002000000000000000400000D8
:10020000006000000041FF000000000B2A00001603
:100210005500002182FD872650FD800000001F0050
:100220000000058000000000000001000000020046
:100230000000030000400000000000046F000265A1
:100240003200005EC040000000000000000000001E
:100250000000000000FB8C6F5DFD5D08D9007C7321
:100260003B006C12CC3200139D3200D0D632000815
:1002700000400001F4FFE68079020000000000D099
:10028000D600002710FB0000004000000000000026
:10029000000000000000000001000000000000015C
:1002A00000010000000000FA36FFBC308E0005FBA4
:1002B000F0FFD95BC8FFD09ABE000010A9FFF41E62
:1002C000B200CEBBF70000000100000004000200F5
:1002D000020200000CFFC280000001800000CF80FD
:1002E00000400000000000000100000000000006C7
:1002F00000000000140000000000000000000000EA
:1003000000000000000000000000000000000000ED
:1003100000000000000000000000000000000000DD
:10032000000000000000000000033F68B679352897
:10033000BCC67ED16C80000000400000000000B20E
:100340006A00000000000000000000000000003F04
:10035000F00000003000000000000000000000007D
:10036000000000000000000000000000000000008D
:1003700000000000000000254D002F706D000005FA
:10038000AE000C02D00000000000650054FFEF003A
:100390000000000000000001000044000000000C0C
:1003A0000000000100000000000065000000540093
:1003B00000FFEF000000000000000000000000004F
:1003C00000000000004000000000000000000000ED
:1003D00000000000004000000000000000000000DD
:1003E000000000000000000001000000020000000A
:1003F00000000000000000000000000000000000FD
:1004000000000000000000000000000000000000EC
:100410000000000000001B000000000000000000C1
:1004200000000000000000000000000000000000CC
:1004300000000000000000000000000000000000BC
:100440000040000000001B00000000000000000051
:10045000000000000000000000000000000000009C
:10046000000000000000000000000000000000008C
:10047000000000000000000000000000000000007C
:100480000000000000D8DCBAA2F1DEB2B8B4A88146
:1004900091F74A907F916AF3F9DBA8F9B0BAA0808E
:1004A000F2CE81F3C2F1C1F2C3F3CCA2B280F1C6A5
:1004B000D880BAA7DFDFDFF2A7C3CBC5B6F087A22B
:1004C000942448703C95406834589B78A2F18392FC
:1004D0002D557DD8B1B4B8A1D09180F270F370F2EF
:1004E0007C80A8F101B09887D943D886C988BAA181
:1004F000F20EB89780F1A9DFDFDFAADFDFDFF2AA13
:10050000C5CDC7A90CC92C97979797F1A9892646FD
:1005100066B0B4BA80ACDEF2CAF1B28C02A9B69869
:1005200000890E161EB8A9B4992C547CB08AA896DE
:10053000365676F1B9AFB4B083C0B8A89711B18F71
:1005400098B9AFF0240844106418F1A329557DAF81
:1005500083B593AFF0002850F1A3869F61A6DADE41
:10056000DFD9FAA38696DB31A6D9F8DFBAA68FC207
:10057000C5C7B28CC1B8A2DFDFDFA3DFDFDFD8D809
:10058000F1B8A8B286B4980D355DB8AA98B0872D99
:10059000353DB2B6BAAF8C96198F9FA70E161EB412
:1005A0009AB8AA872C547CB9A3DEDFDFA3B180F20E
:1005B000C4CDC9F1B8A9B499830D355D89B9A32D0E
:1005C000557DB593A30E161EA92C547CB8B4B0F17A
:1005D0009783A81184A50998A383F0DA240844100E
:1005E0006418D8F1A529557DA58595021A2E3A568D
:1005F0005A4048F9F3A3D9F8F098832408441064CA
:10060000189782A8F111F098A2240844106418DA0F
:10061000F3DED883A59401D9A302F1A2C3C5C7D83C
:10062000F18492A24DDA2AD84869D92AD86855DAD5
:1006300032D85071D932D8705DDA3AD85879D93A6F
:10064000D87893A34DDA2AD84869D92AD86855DAD8
:1006500032D85071D932D8705DDA3AD85879D93A4F
:10066000D878A88A9AF02850789EF38818F19F1DB0
:1006700098A8D908D8C89F129EF315A8DA1210D8E6
:10068000F1AFC8978734B5B994A421F3D922D8F231
:100690002DF3D92AD8F235F3D932D881A46060611C
:1006A000D961D86C6869D969D8747071D971D8B1B9
:1006B000A384193D5DA3831A3E5E9310308110110F
:1006C000B8B0AF8F94F2DA3ED8B49AA88729DAF896
:1006D000D8879A35DAF8D8879A3DDAF8D8B1B9A42C
:1006E0009885022E56A581000C14A397B08AF12D8F
:1006F000D928D84DD948D86DD968D8B1840DDA0E2B
:10070000D8A32983DA2C0ED8A3844983DA2C4C0E83
:10071000D8B8B0A88A9AF520AADADFD8A840AAD01B
:10072000DADED8A860AADAD0DFD8F19786A8319BA4
:10073000069907AB9728889BF00C201440B8B0B4FA
:10074000A88C9CF0042851791D301438B282ABD0AB
:10075000982C505078789BF11AB0F08A9CA82951B7
:10076000798B2951798A2470598B2058718A446970
:10077000388B3940688A6448318B304960A58820BD
:100780000971584468113964493019F1AC002C548E
:100790007CF08CA804285078F1889726A85998AC4A
:1007A0008C02264666F0899CA82951792470594408
:1007B0006938644831A98809205970AB11384069FB
:1007C000A8193148608CA83C415C207C00F18798D6
:1007D0001986A86E767EA999882D557D9EB9A38A23
:1007E000228A6E8A568A5E9FB183062646660E2E40
:1007F0004E6E9DB8AD002C547CF2B18CB499B9A367
:100800002D557D8191AC38AD3AB58391AC2DD92869
:10081000D84DD948D86DD968D88C9DAE29D904AEA9
:10082000D851D904AED879D904D881F39DAD008DC3
:10083000AE1981ADD901D8F2AEDA26D88E912983CE
:10084000A7D9ADADADADF32AD8D8F1B0AC89913E02
:100850005E76F3AC2E2EF1B18C5A9CAC2C28282855
:100860009CAC3018A8988128343C9724A728343CA5
:100870009C24F2B089AC912C4C6C8A9B2DD9D8D891
:1008800051D9D8D879D9D8D8F19E88A331DAD8D817
:10089000912DD928D84DD948D86DD968D8B183932E
:1008A000353D8025DAD8D88569DAD8D8B49381A3C4
:1008B00028343CF3AB8BF8A391B609B4D9ABDEFA7C
:1008C000B0879CB9A3DDF1A3A3A3A395F1A3A3A330
:1008D0009DF1A3A3A3A3F2A3B49080F2A3A3A3A327
:1008E000A3A3A3A3A3A3B2A3A3A3A3A3A3B087B5C6
:1008F00099F1A3A3A398F1A3A3A3A397A3A3A3A34D
:10090000F39BA3A3DCB9A7F1262626D8D8FF0000C5
:100910000000240027002A00000000002500280015
:100920002B00040404040404040402020202020270
:1009300003030303030301020408102040800102A3
:100940000408102001020408102000000008000222
:100950000100000304070000000000000000AF1ABF
:1009600011241FBECFEFD8E0DEBFCDBF11E0A0E065
:10097000B1E0ECE3F2E402C005900D92A23EB107B3
:10098000D9F724E0A2EEB1E001C01D92A033B20776
:10099000E1F714E0C0EBD4E004C02197FE010E940F
:1009A000CD1ECF3AD107C9F70E94B2100C941C217A
:1009B0000C940000FC01538D448D252F30E0842FD2
:1009C00090E0821B930B541710F0CF960895019777
:1009D0000895FC01918D828D981721F1A289B38928
:1009E0008C9182FF13C0828DDF01A80FB11D5D962F
:1009F0002C91828DDF01A80FB11D5E968C91928D96
:100A00009E5F9F73928F90E0922B0895828DDF01FD
:100A1000A80FB11D5D968C91928D9F5F9F73928FF1
:100A200090E008958FEF9FEF0895FC01918D828DE6
:100A30009817C1F0A289B3898C9182FF0DC0928D65
:100A4000828DDF01A80FB11D5E968C91E90FF11D1B
:100A5000258D90E0922B0895828DE80FF11D858DF4
:100A600090E008958FEF9FEF0895FC01218D428D56
:100A700030E0C901805C9F4F841B91098F739927D7
:100A80000288F389E02D208122FF02C09695879588
:100A900008958BE493E00E94350521E0892B09F449
:100AA00020E0822F0895CF93DF93FC01A289B389C0
:100AB0008C9182FF1CC0848DEF01C80FD11DC35AD9
:100AC000DF4F3881848DEF01C80FD11DC25ADF4F2F
:100AD0002881848D90E002968F739927848F8C9162
:100AE00030FF02C0816001C08E7F8C930DC0848D69
:100AF000DF01A80FB11DA35ABF4F2C91848D90E048
:100B000001968F739927848FA689B7892C93A08922
:100B1000B1898C9180648C93938D848D981306C0D9
:100B20000288F389E02D80818F7D8083DF91CF91D2
:100B30000895EF92FF921F93CF93DF93EC017B0117
:100B40009B8D8C8DEA89FB89981305C0A889B9898A
:100B50008C9185FD3BC0808182FF03C01B8D1E5F91
:100B600002C01B8D1F5F1F738C8D18130CC00FB636
:100B700007FCFACFE889F989808185FFF5CFCE019E
:100B80000E945305F1CFEA89FB89808182FF10C062
:100B90008B8DDE01A80FB11DA35ABF4F8F2D817021
:100BA0008C938B8DDE01A80FB11DA25ABF4F06C0DA
:100BB0008B8DDE01A80FB11DA35ABF4FEC921B8F86
:100BC00080818062808381E0888F12C0808182FF73
:100BD00007C08081F0FE02C0816001C08E7F8083EB
:100BE000EE89FF89E082E889F989808180648083C9
:100BF00081E090E0DF91CF911F91FF90EF900895F9
:100C0000CF93DF93EC01888D8823C9F0EA89FB89B3
:100C1000808185FD05C0A889B9898C9186FD0FC0AA
:100C20000FB607FCF5CF808185FFF2CFA889B9897F
:100C30008C9185FFEDCFCE010E945305E7CFDF9168
:100C4000CF91089580E090E0892B29F00E9449051A
:100C500081110C9400000895DC01ED91FC9170E08D
:100C60000684F785E02D09943FB7F8948091FC0243
:100C70009091FD02A091FE02B091FF0226B5A89BC3
:100C800005C02F3F19F00196A11DB11D3FBFBA2F1E
:100C9000A92F982F8827820F911DA11DB11DBC017E
:100CA000CD0142E0660F771F881F991F4A95D1F743
:100CB000089508958091E20190E02091E301821B64
:100CC0009109089585ED8093BC008091BC0084FD5E
:100CD000FCCF10922603089540918C02262F30E01D
:100CE000240F311D21323105DCF4209126032430FC
:100CF000C9F4FC0180E090E0861758F430918C0232
:100D00002191DC01A659BD4FA30FB11D2C93019673
:100D1000F3CF80918C02680F60938C0280E008957D
:100D200081E0089582E008950895E091E3018091C3
:100D3000E201E81730F4F0E0E952FD4F808190E0E5
:100D400008958FEF9FEF08959091E3018091E20164
:100D5000981750F4E92FF0E0E952FD4F208130E080
:100D60009F5F9093E30102C02FEF3FEFC901089509
:100D7000CF92DF92EF92FF920F931F93CF93DF9367
:100D80007C01262F972F8A0180912703882391F0D9
:100D9000C62FD72F6E01C40ED51ECC15DD0571F000
:100DA0006991D701ED91FC910190F081E02DC7018F
:100DB0000995F3CF642F822F0E946C06C801DF9142
:100DC000CF911F910F91FF90EF90DF90CF900895FA
:100DD000CF93DF931F92CDB7DEB7698320912703AE
:100DE0002223D1F020914A03203240F021E030E06C
:100DF000FC013383228380E090E015C080912803BA
:100E0000E82FF0E0E75DFC4F998190838F5F80933E
:100E1000280380934A0305C061E0CE0101960E9439
:100E20006C0681E090E00F90DF91CF9108950895D6
:100E300080E090E0089581E08093E40108950E94AD
:100E4000CA201F920F920FB60F9211242F933F9337
:100E50004F935F936F937F938F939F93AF93BF93C2
:100E6000EF93FF938BE493E00E945305FF91EF9182
:100E7000BF91AF919F918F917F916F915F914F91B2
:100E80003F912F910F900FBE0F901F9018951F92BA
:100E90000F920FB60F9211242F933F938F939F932E
:100EA000AF93BF93EF93FF93E0915B03F0915C03EB
:100EB0008081E0916103F091620382FD2CC0A091DA
:100EC0005D03B0915E038C9182FF08C08091640342
:100ED0008E5F8F739C919695917004C0809164038E
:100EE0008F5F8F732081309165038317A9F03C9148
:100EF000E0916403F0E0E55BFC4F32FF08C0958FA2
:100F0000E0916403F0E0E55BFC4F268F01C0258F84
:100F10008093640301C08081FF91EF91BF91AF91F5
:100F20009F918F913F912F910F900FBE0F901F9027
:100F3000189590E0FC01E65BF64F3491FC01EA5C09
:100F4000F64F2491FC01EE5DF64FE491EE2309F497
:100F50003BC0332339F1333091F038F43130A9F00C
:100F6000323001F584B58F7D12C0373091F03830C2
:100F7000A1F03430B9F4809180008F7D03C080915E
:100F800080008F77809380000DC084B58F7784BDFB
:100F900009C08091B0008F7703C08091B0008F7D31
:100FA0008093B000F0E0EE0FFF1FE85EF64FA591D2
:100FB000B4918FB7F894EC91611103C020952E2362
:100FC00001C02E2B2C938FBF08958F929F92AF92CA
:100FD000BF92CF92DF92EF92FF926B017C010E9451
:100FE00034064B015C01C114D104E104F104F1F0B9
:100FF0000E943406DC01CB0188199909AA09BB09B2
:10100000883E9340A105B10570F321E0C21AD108D2
:10101000E108F10888EE880E83E0981EA11CB11C3F
:10102000C114D104E104F10419F7DDCFFF90EF9072
:10103000DF90CF90BF90AF909F908F9008952FB783
:10104000F8946091F8027091F9028091FA029091FF
:10105000FB022FBF08951F920F920FB60F9211241B
:101060002F933F938F939F93AF93BF938091F802F9
:101070009091F902A091FA02B091FB023091F7022F
:1010800023E0230F2D3720F40196A11DB11D05C0CB
:1010900026E8230F0296A11DB11D2093F70280932D
:1010A000F8029093F902A093FA02B093FB028091A8
:1010B000FC029091FD02A091FE02B091FF02019608
:1010C000A11DB11D8093FC029093FD02A093FE022E
:1010D000B093FF02BF91AF919F918F913F912F915C
:1010E0000F900FBE0F901F9018951F920F920FB682
:1010F0000F9211242F933F934F935F936F937F939E
:101100008F939F93AF93BF93EF93FF93E09102016F
:10111000F09103010995FF91EF91BF91AF919F91DC
:101120008F917F916F915F914F913F912F910F9090
:101130000FBE0F901F9018951F920F920FB60F922F
:1011400011242F933F934F935F936F937F938F93CC
:101150009F93AF93BF93EF93FF93E0910001F091C2
:1011600001010995FF91EF91BF91AF919F918F91EF
:101170007F916F915F914F913F912F910F900FBE93
:101180000F901F901895EF92FF920F931F93CF939C
:10119000DF9300D0CDB7DEB7142F91E090932703F3
:1011A000809349031092280310924A0388EE93E03B
:1011B00029833A830E94E8062981022FE22E3A8190
:1011C000F32E8E2D801B811740F4F70161917F0172
:1011D00088EE93E00E94E806F4CF0E94C80D91E0EB
:1011E000811190E0892F0F900F90DF91CF911F9187
:1011F0000F91FF90EF900895CF93DF931F92CDB79B
:10120000DEB749839E012F5F3F4F41E00E94C30834
:101210000F90DF91CF9108952F923F924F925F925E
:101220006F927F928F929F92AF92BF92CF92DF92F6
:10123000EF92FF920F931F93CF93DF93CDB7DEB75B
:1012400027970FB6F894DEBF0FBECDBFE82E6B8395
:101250004F8369010E941F084B015C016E2C660CD4
:10126000F12C1E82772473945F81452F50E05D83BB
:101270004C831801412C512C4F81F41608F099C071
:1012800070922703E09249031092280310924A03B8
:101290006B8188EE93E00E94E8060E94C80D709270
:1012A0002703E09249031092280310924A03809189
:1012B00026038111FCCF2C813D812F193109213268
:1012C000310514F020E230E0213208F020E2709283
:1012D0002603709225038FEF80932403109223033B
:1012E000820F80932203709201038091010386296B
:1012F0008093010380910003813071F41092000308
:10130000809101038093BB008091BC0083FDF8CFE6
:1013100095EC9093BC0003C0E5EEE093BC00809197
:1013200026038130E1F380912303821710F420918A
:101330002303A2E0B3E0E7EDF2E08E2F47ED52E0A9
:10134000841B821718F48D918193F7CF1092E301DB
:101350002093E2019091E2018091E301981719F145
:101360000115110599F4A6012E81420F511D27FD8B
:101370005A955A83498388EE93E00E94A406E98136
:10138000FA8180832E812F5F2E83E4CF0E941F0875
:10139000DC01CB0188199909AA09BB0982159305BB
:1013A000A405B50500F38F81813208F080E2F80EC4
:1013B00063CFFE8001151105D9F00E941F08DC01E2
:1013C000CB0188199909AA09BB0920E030E08017F0
:1013D0009107A207B30760F05F81252F30E08F2DC2
:1013E0000F2C000C990B8217930714F4FF24FA9426
:1013F0008F2D27960FB6F894DEBF0FBECDBFDF91BD
:10140000CF911F910F91FF90EF90DF90CF90BF9001
:10141000AF909F908F907F906F905F904F903F9094
:101420002F900895BF92CF92DF92EF92FF920F9389
:101430001F93CF93DF931F92CDB7DEB7F82EE62E22
:10144000C42EB22ED02E08EE13E09E012F5F3F4F28
:1014500041E00E940C09882321F1EC2DF0E0EB190A
:10146000F109319621E030E002C0220F331FBA9417
:10147000E2F7215031090E2E01C0220F0A94EAF73B
:101480008D2D01C0880FEA95EAF7422F409599818A
:1014900049232823422B49836E2D8F2D0E94FC085F
:1014A00001C080E00F90DF91CF911F910F91FF90CD
:1014B000EF90DF90CF90BF900895CF92DF92EF92A0
:1014C000FF920F931F93CF93DF931F92CDB7DEB799
:1014D000F82EE62ED42EC22E08EE13E09E012F5FCA
:1014E0003F4F41E00E940C099981CC2041F041E03E
:1014F00050E001C0440FDA94EAF7492B09C021E01B
:1015000030E0A90101C0440FDA94EAF7409549237D
:1015100049836E2D8F2D0E94FC080F90DF91CF9193
:101520001F910F91FF90EF90DF90CF900895CF9291
:10153000DF92EF92FF92CF93DF93EC01603282E073
:1015400078070CF03DC077FD06C0653B71052CF0B7
:1015500064EB70E002C060E070E0898128E830E070
:101560006901C81AD10887FDD394CC0CDD1CCC0CC2
:10157000DD1C0D2C000CEE08FF088A8128E532E006
:10158000281B310987FD3395220F331F220F331F8C
:10159000C901330FAA0BBB0B9C01AD012C193D09EE
:1015A0004E095F09DB010E94451B24EB30E040E05F
:1015B00050E00E941B1BC20ED31EE41EF51EB60196
:1015C00088818C3080F5998148E850E0491B5109A9
:1015D00097FD5395440F551F440F551F641775070A
:1015E00084F09A8128E532E0291B310997FD339573
:1015F000220F331F220F331FAB01261737070CF4BE
:10160000A90142505109440F551F2FB7F89490E09B
:10161000FC01EE0FFF1F8E0F9F1FFC01ED54FD4FCD
:10162000528341832FBFDF91CF91FF90EF90DF90E6
:10163000CF900895CF93DF93DC018C918C3008F02C
:101640006DC09B013327F901EA5CF64F8491F901E3
:10165000EE5DF64F2491222399F030E0220F331FE4
:10166000F901E25FF64FC591D491F901E85EF64FBA
:10167000259134919FB7F894E881E82BE8839FBFC8
:101680008C91E82FF0E09F01220F331FE20FF31F30
:10169000ED54FD4F6F739081907C692B60831196A0
:1016A0001C92119712961C9212976CE00E94C11E18
:1016B0009CE0899FB001112440E050E09A01260F80
:1016C000371FF901EE0FFF1F2E0F3F1FF901ED54D9
:1016D000FD4F908196FD16C04F5F5F4F4C30510516
:1016E00069F781110FC01092800082E08093810021
:1016F0001092850010928400B19A80916F008260F0
:1017000080936F00EC91F0E0CF01880F991FE80FF4
:10171000F91FED54FD4F8081806480838C91DF91AF
:10172000CF910895FC019091B2029C30A0F481E029
:10173000890F8093B2029083892F90E0FC01EE0F15
:10174000FF1F8E0F9F1FFC01ED54FD4F88EB9BE0A8
:101750009283818308958FEF808308951F920F9263
:101760000FB60F9211242F933F934F935F936F9374
:101770007F938F939F93AF93BF93EF93FF9380914A
:10178000B10287FF05C010928500109284001BC033
:101790002091B102022E000C330B8091B20290E036
:1017A0002817390784F48091B102082E000C990B98
:1017B000FC01EE0FFF1F8E0F9F1FFC01ED54FD4F2C
:1017C000808186FD15C08091B1028F5F8093B10248
:1017D0002091B102022E000C330B8091B20290E0F6
:1017E00028173907C4F48091B1028C3064F113C01A
:1017F0008091B102082E000C990BFC01EE0FFF1F27
:101800008E0F9F1FFC01ED54FD4F808160E08F73B0
:101810000E949907D8CF809184009091850004960A
:1018200080349C4918F480E49CE905C080918400D0
:1018300090918500049690938900809388008FEFA3
:101840008093B1023BC0209184003091850080914B
:10185000B102082E000C990BFC01EE0FFF1F8E0F3A
:101860009F1FFC01ED54FD4F81819281820F931FD8
:1018700090938900809388008091B102082E000C1B
:10188000990BFC01EE0FFF1F8E0F9F1FFC01ED5403
:10189000FD4F808186FF12C08091B102082E000C9E
:1018A000990BFC01EE0FFF1F8E0F9F1FFC01ED54E3
:1018B000FD4F808161E08F730E949907FF91EF9146
:1018C000BF91AF919F918F917F916F915F914F9158
:1018D0003F912F910F900FBE0F901F9018951F9260
:1018E0000F920FB60F9211242F933F934F935F9354
:1018F0006F937F938F939F93AF93BF93EF93FF93D8
:101900008091B900887F803609F49CC068F58832E0
:1019100009F45BC090F4803109F454C038F4882392
:1019200009F4F6C0883009F44DC0F6C0883109F4D6
:101930004CC0803209F45DC0EFC0803409F468C047
:1019400048F4803309F455C0883309F0E5C080932A
:101950002403D8C0803509F44FC0883509F45DC030
:10196000883409F0D9C0D6C0883909F4C7C0A8F4B2
:10197000883709F467C038F4883609F463C08037C3
:1019800009F460C0C9C0883809F4B8C0803909F4C6
:101990005FC0803809F0C0C05BC0803B09F486C0DE
:1019A00038F4803A09F466C0883A09F47FC0B4C0BC
:1019B000803C09F4A7C0883C09F4A4C0883B09F422
:1019C0008AC0AAC08091010310C090912303809126
:1019D0002203981770F5E091230381E08E0F809326
:1019E0002303F0E0EE5FFC4F80818093BB0085EC29
:1019F00086C0809324038EC0E091230381E08E0F84
:101A0000809323038091BB00F0E0EE5FFC4F808366
:101A100090912303809122036EC0E091230381E023
:101A20008E0F809323038091BB00F0E0EE5FFC4FAC
:101A300080838091250381116DC081E08093000334
:101A400084EA61C083E0809326031092B002CFCF76
:101A50008091B002803208F051C0E091B00281E084
:101A60008E0F8093B0028091BB00F0E0E057FD4FF5
:101A70008083BDCF85EC8093BC00109226038091BB
:101A8000B002803230F4E091B002F0E0E057FD4F58
:101A900010826091B00270E0E0918E02F0918F02AE
:101AA00080E992E009951092B00236C084E08093FC
:101AB000260310928D0210928C02E0918A02F0911E
:101AC0008B02099580918C02811105C081E0809381
:101AD0008C0210926A02E0918D0281E08E0F809359
:101AE0008D02F0E0E659FD4F80818093BB0090911C
:101AF0008D0280918C02981708F479CF85E8809345
:101B0000BC000AC085EC8093BC001092260304C080
:101B1000109224030E946206FF91EF91BF91AF9152
:101B20009F918F917F916F915F914F913F912F91F5
:101B30000F900FBE0F901F901895CF92DF92EF92EB
:101B4000FF920F931F93CF93DF936C017A018B0168
:101B5000C0E0D0E0CE15DF0589F0D8016D918D0190
:101B6000D601ED91FC910190F081E02DC60109951F
:101B7000892B11F47E0102C02196ECCFC701DF91C1
:101B8000CF911F910F91FF90EF90DF90CF9008952C
:101B900020914A0390914903213208F04AC0809174
:101BA00026038111FCCF32E03093260331E03093DD
:101BB00025033FEF30932403109223032093220345
:101BC000A9E2B3E042E053E0FA013E2F341B3217A2
:101BD00018F43D913193F9CF109201032091010344
:101BE000990F922B9093010390910003913061F42F
:101BF00010920003909101039093BB009091BC0060
:101C000093FDF8CF95EC01C095EE9093BC009091B8
:101C100026039230E1F3909124039F3F79F0809165
:101C20002403803241F080912403803331F084E03A
:101C300005C081E003C082E001C083E01092280368
:101C400010924A031092270308950F931F93CF9386
:101C5000DF93C9E1D4E008EE13E02AE134E041E08B
:101C60006AE388810E940C098981DF91CF911F91DD
:101C70000F91089521E042E06AE6809119040C94E6
:101C80005D0A482F6EE6809119040C94FC082F928F
:101C90003F924F925F926F927F928F929F92AF92FC
:101CA000BF92CF92DF92EF92FF920F931F93CF9349
:101CB000DF933C015B01342ED22F202E4F716DE655
:101CC000809119040E94FC088D2F0E94410E80E132
:101CD00090E00E94D31E6C01002339F080E190E077
:101CE0000E94D31EC82F492E02C0C0E0412CE12C17
:101CF000F12CEA14FB0408F06EC0C7014096A81648
:101D0000B90618F45A2C5E1802C080E1582E852DB1
:101D100090E020E031E02D1B31092817390714F439
:101D20005D2E5194F301EE0DFF1D222059F09C2FE2
:101D3000AC2FB42D8A2F891B851530F484918D9397
:101D40003196F8CFCE2F4F2E2C2F342D452D6FE608
:101D5000809119040E94C308852C912CC114D104D0
:101D600029F1432D4F716DE6809119040E94FC0802
:101D70008D2F0E94410E08EE13E09601452D6FE66F
:101D8000809119040E940C09A401B6018C2F942D96
:101D90000E94CF20892B51F0C6010E94681F22208B
:101DA00021F18C2F942D0E94681F1FC0E80CF91C94
:101DB000D50DEA14FB0408F09CCFD11101C0339477
:101DC000432D4F716DE6809119040E94FC088D2F00
:101DD0000E94410E8ECFC6010E94681F222039F05A
:101DE0008C2F942D0E94681F02C080E001C081E00A
:101DF000DF91CF911F910F91FF90EF90DF90CF90E7
:101E0000BF90AF909F908F907F906F905F904F901A
:101E10003F902F9008950F931F93662351F0462F04
:101E20009C0108EE13E064E7809119040E940C09FC
:101E300002C0FC0110821F910F9108950F931F9310
:101E4000CF93DF93C9E1D4E008EE13E02AE134E058
:101E500042E062E788810E940C09898190E0982F16
:101E600088272A81822BDF91CF911F910F910895AE
:101E7000EF92FF920F931F93CF93DF931F92CDB7F3
:101E8000DEB77A0189019E012F5F3F4F41E00E943A
:101E90000C09882339F029812E7730E03595279574
:101EA000F70120830F90DF91CF911F910F91FF9049
:101EB000EF900895009769F0FC0101900020E9F788
:101EC0003197AF01481B590BBC018BE493E00C9494
:101ED0009D0D80E090E008958F929F92AF92BF9207
:101EE0000F931F93CF93DF93CDB7DEB7A1970FB6B4
:101EF000F894DEBF0FBECDBF19A2423008F44AE00D
:101F00008E010F5D1F4F842E912CA12CB12CA501A9
:101F100094010E944D1BE62FB901CA01015011091D
:101F2000EA3014F4E05D01C0E95CD801EC93232BA6
:101F3000242B252B61F7C8010E945A0FA1960FB6DA
:101F4000F894DEBF0FBECDBFDF91CF911F910F91EF
:101F5000BF90AF909F908F900895CF93DF930E9492
:101F60005A0FEC018DE891E00E945A0F8C0F9D1FD3
:101F7000DF91CF910895CF93DF93EA0191E09093A1
:101F80002703809349031092280310924A0388EE96
:101F900093E00E94E806698188EE93E00E94E806DB
:101FA000688188EE93E00E94E8060E94C80D91E0E7
:101FB000811190E0892FDF91CF9108958F929F92A8
:101FC000AF92BF92CF92DF92EF92FF92CF93DF93C7
:101FD0006B017C019B01AC010E94A71E882319F0B4
:101FE00086ED91E027C046015701E894B7F82FEF3E
:101FF0003FEF4FE75FE7C501B4010E94A71E8111C3
:102000000DC02FEF3FEF4FE75FE7C501B4010E941E
:102010005D1C18161CF48AED91E00CC02FEF3FEF09
:102020004FE75FE4C701B6010E94E31D181674F480
:102030008EED91E0DF91CF91FF90EF90DF90CF9008
:10204000BF90AF909F908F900C945A0F2FEF3FEF5F
:102050004FE75FECC701B6010E945D1C87FDE8CF2A
:1020600020E030E0A901C701B6010E945D1C87FF96
:1020700011C0E0914B03F0914C030190F081E02DF1
:102080006DE28BE493E00995EC01F7FAF094F7F830
:10209000F09402C0C0E0D0E02AE037ED43EA5BE311
:1020A000C701B6010E947F1B4B015C010E94DB1C33
:1020B0006B017C010E940A1D9B01AC01C501B401AA
:1020C0000E947E1B4B015C014AE0C701B6010E94E1
:1020D0006C0FC80FD91FE0914B03F0914C03019096
:1020E000F081E02D6EE28BE493E00995C80FD91FD3
:1020F00020E030E040E251E4C501B4010E94F01D4F
:102100004B015C010E94DB1C6B01E12CF12C4AE0CD
:10211000C701B6010E946C0FC80FD91FC701B601D5
:102120000E940A1D9B01AC01C501B4010E947E1BE7
:1021300020E030E040E251E40E94F01D0E94DB1CF0
:1021400080E090E04AE00E946C0F8C0F9D1FDF91B1
:10215000CF91FF90EF90DF90CF90BF90AF909F9086
:102160008F900895CF93DF93CDB7DEB7CE5AD109C4
:102170000FB6F894DEBF0FBECDBF789484B58260F1
:1021800084BD84B5816084BD85B5826085BD85B51B
:10219000816085BD80916E00816080936E00109299
:1021A0008100809181008260809381008091810014
:1021B00081608093810080918000816080938000A5
:1021C0008091B10084608093B1008091B000816003
:1021D0008093B00080917A00846080937A0080912F
:1021E0007A00826080937A0080917A008160809387
:1021F0007A0080917A00806880937A001092C10002
:102200001092E3011092E2011092280310924A0307
:102210001092260381E0809325031092000361E071
:1022200082E10E94990761E083E10E949907809111
:10223000B9008E7F8093B9008091B9008D7F809323
:10224000B90088E48093B80085E48093BC008CE0FA
:102250008093B800E0915B03F0915C0382E080839F
:10226000E0915703F09158031082E0915903F091E7
:102270005A038FEC808310926303E0915F03F09127
:10228000600386E08083E0915D03F0915E038081CE
:1022900080618083E0915D03F0915E0380818860BE
:1022A0008083E0915D03F0915E038081806880838C
:1022B000E0915D03F0915E0380818F7D808382E4F5
:1022C00091E00E94AD0F01E023E042E06BE68091D7
:1022D00019040E94120A00E022E044E06BE18091C0
:1022E00019040E94120A22E044E06CE18091190472
:1022F0000E94120A20E046E06BE6809119040E94D9
:102300005D0A28EE33E04AE154E065E78091190464
:102310000E94380F80911A04843329F082E591E0FD
:102320000E94AD0FEECF21E047E06BE680911904EB
:102330000E945D0A6EE170E080E090E00E94E50797
:1023400020E046E06BE6809119040E945D0A40E7B8
:102350006DE6809119040E94FC0886E00E94410EFF
:1023600040E06DE6809119040E94FC0828EE33E0FD
:102370004AE154E060E0809119040E94380F809097
:102380001A0428EE33E04AE154E061E08091190438
:102390000E94380F90901A0428EE33E04AE154E08E
:1023A00062E0809119040E94380FA0901A044FE750
:1023B00065E2809119040E94FC0820E045E06AE68D
:1023C000809119040E945D0A48E665E28091190433
:1023D0000E94FC0821E041E06AE6809119040E9415
:1023E0005D0A64E170E080E090E00E94E50701E0B2
:1023F00020E040E069E877E085E891E00E94470E40
:10240000882309F4CDC288E090E00E94D31EB82E44
:10241000192FE12CF12CF701EB53FF4F4491F701F9
:10242000EA53FF4F2491670183E0C80ED11CF701E6
:10243000E953FF4FE491EE23D1F1EE2EF12CE3307E
:10244000D8F0B7018B2D912FC255DF4F2883CE5A7C
:10245000D040C355DF4F4883CD5AD0400E94002062
:10246000B82E192FC355DF4F4881CD5AD040C255E1
:10247000DF4F2881CE5AD040AB2DB12F80E090E0C5
:102480008E159F0548F4F601E80FF91FEB53FF4F37
:10249000E491ED930196F4CF00E0B7018B2D912FDD
:1024A0000E94470EEC0CFD1C811117C010C094E077
:1024B000E90EF11CF601EB53FF4FE491E13039F4E2
:1024C00042E368E3809119040E94FC0806C08B2D4A
:1024D000912F0E94681F12E064C2A0ECEA16F1047A
:1024E00008F499CF8B2D912F0E94681F03E023E001
:1024F00042E06BE6809119040E94120A42E168E30F
:10250000809119040E94FC0844E069E1809119045B
:102510000E94FC0801E023E045E06AE18091190493
:102520000E94120A03E023E042E06AE1809119046C
:102530000E94120A22E044E06BE1809119040E949B
:10254000120A43E060E7809119040E94FC0840E011
:1025500061E7809119040E94FC0820E040E060E0FF
:10256000809119040E945D0A082D26E046E060E093
:10257000809119040E94120A092D26E046E061E0CC
:10258000809119040E94120A0A2D26E046E062E0BA
:10259000809119040E94120AE12CF12CF701EA56ED
:1025A000FF4FE491A1E8B0E0AC0FBD1FAE0DB11D2F
:1025B000EC9381E08E0DBFEFEB1AFB0A23E02E15A2
:1025C00068F7CD57DF4F6881C358D04070E09B015A
:1025D0002E5F3F4F90E02817390704F700E0CE57F1
:1025E000DF4F2881C258D040CF57DF4F4881C158B4
:1025F000D04081E890E08C0F9D1F03960E94470E0B
:1026000080E0F701EA56FF4FE491A1E8B0E0AC0F9B
:10261000BD1FA80FB11DEC938F5F9FEFE91AF90A58
:10262000843078F3CD57DF4F6881C358D04070E0D5
:10263000AB014E5F5F4F282F30E0421753070CF776
:1026400000E0CE57DF4F2881C258D040CF57DF4F30
:102650004881C158D04081E890E08C0F9D1F0396BF
:102660000E94470E0E943A0E0E941E0F682FCE0154
:1026700001960E940B0F42E06FE1809119040E94C5
:10268000FC084CE961E2809119040E94FC0840E5D5
:1026900060E2809119040E94FC0840E062E28091AF
:1026A00019040E94FC080E943A0E21E046E06AE606
:1026B000809119040E945D0A21E047E06AE680915A
:1026C00019040E945D0A21E043E06AE68091190442
:1026D0000E945D0A80E0F701EA56FF4FE491A1E80D
:1026E000B0E0AC0FBD1FA80FB11DEC938F5FAFEF33
:1026F000EA1AFA0A843078F3CD57DF4F6881C3585D
:10270000D04070E0AB014E5F5F4F282F30E04217A2
:1027100053070CF700E0CE57DF4F2881C258D04056
:10272000CF57DF4F4881C158D04081E890E08C0FEF
:102730009D1F03960E94470E80E0F701EA56FF4F67
:10274000E491A1E8B0E0AC0FBD1FA80FB11DEC9360
:102750008F5FBFEFEB1AFB0A843078F3CD57DF4F62
:102760006881C358D04070E0AB014E5F5F4F282FA7
:1027700030E0421753070CF700E0CE57DF4F2881B7
:10278000C258D040CF57DF4F4881C158D04081E870
:1027900090E08C0F9D1F03960E94470E80E0F7018A
:1027A000EA56FF4FE491A1E8B0E0AC0FBD1FA80FBF
:1027B000B11DEC938F5F2FEFE21AF20A843078F3A9
:1027C000CD57DF4F6881C358D04070E0AB014E5FFA
:1027D0005F4F282F30E0421753070CF700E0CE5729
:1027E000DF4F2881C258D040CF57DF4F4881C158B2
:1027F000D04081E890E08C0F9D1F03960E94470E09
:102800000E941E0F83309105D8F3682FCE010196E8
:102810000E940B0F80E0F701EA56FF4FE491A1E818
:10282000B0E0AC0FBD1FA80FB11DEC938F5F9FEF01
:10283000E91AF90A843078F3CD57DF4F3880C3584E
:10284000D040832C912CA4014E5F5F4F282F30E0A5
:102850004217530704F7CE57DF4FB880C258D04015
:10286000CF57DF4F2880C158D040422D4F716DE6C1
:10287000809119040E94FC088B2D0E94410EC12CEE
:10288000D12C612C7724739461E8462E512C4C0E88
:102890005D1EA3E04A0E511CC814D90498F5C60168
:1028A00040968816990618F4A32CAC1802C040E193
:1028B000A42E8A2D90E093012B193109281739078E
:1028C00014F4AB2CA19492012C0D3D1D08EE13E0E5
:1028D0004A2D6FE6809119040E940C09CA0CD11C84
:1028E000BA0CC814D904C0F6B11001C02394422D0B
:1028F0004F716DE6809119040E94FC088B2D0E9497
:10290000410ECACF0E941E0F83309105D8F3682F65
:10291000CE0101960E940B0FF701EA56FF4F80E0AF
:102920009491A1E8B0E0AC0FBD1FA80FB11D9C931E
:102930008F5F843010F43196F3CFCD57DF4F68812D
:10294000C358D04070E0AB014E5F5F4F282F30E09E
:102950004217530784F700E0CE57DF4F2881C25853
:10296000D040CF57DF4F4881C158D04081E890E038
:102970008C0F9D1F03960E94470E20E047E06AE6F9
:10298000809119040E945D0A8AE290E090931C04F1
:1029900080931B040E943A0E0E94250E10E001C095
:1029A00011E01093E5018091190423E630E0CD5643
:1029B000DF4F39832883C359D040AE014D565F4F56
:1029C00063E10E94BB0F809119042DE030E0CF56E7
:1029D000DF4F39832883C159D040AE014F565F4F36
:1029E00065E10E94BB0F8091190426E030E0CF57CB
:1029F000DF4F39832883C158D040AE014F575F4F16
:102A000067E10E94BB0F8091190423EF35E03A8300
:102A10002983AE014F5F5F4F6AE00E94BB0F111127
:102A20002AC084E691E00E94AD0F21E047E06AE60B
:102A3000809119040E945D0A8BE197E09093010157
:102A40008093000180916900836080936900E89A17
:102A50000E94250E8093560220E046E06BE68091AE
:102A600019040E945D0A81E08093690280911B0431
:102A70008093670212C08BE791E00E94AD0F6091D6
:102A8000E50170E080E090E04AE00E946C0F8DE884
:102A900091E00E945A0F1092690210920602109261
:102AA000070210920802109209021092FA01109285
:102AB000FB011092FC011092FD011092EE011092A8
:102AC000EF011092F0011092F10180E090E0A8E493
:102AD000B2E480930C0190930D01A0930E01B0938A
:102AE0000F018093080190930901A0930A01B0930C
:102AF0000B018093040190930501A0930601B0930C
:102B0000070180E090E0A0E0BFE380930202909391
:102B10000302A0930402B09305028093F601909300
:102B2000F701A093F801B093F9018093EA01909323
:102B3000EB01A093EC01B093ED0169E070E086E158
:102B400094E00E941A0B6AE070E083E194E00E9436
:102B50001A0B6BE070E080E194E00E941A0B809108
:102B60006902811105C080E991E00E94AD0FE8C1C2
:102B700090916802809167022091E401211102C0C6
:102B80009817D0F30E941F0800916302109164020D
:102B90002091650230916602DC01CB01801B910B14
:102BA000A20BB30B883C9105A105B10508F418C12F
:102BB00020E030E044EB52E460910A0270910B0295
:102BC00080910C0290910D020E947F1B9B01AC0131
:102BD00060910602709107028091080290910902AB
:102BE0000E947E1B20910C0130910D0140910E013D
:102BF00050910F010E94F01D6B017C012091FE019C
:102C00003091FF0140910002509101020E947F1B10
:102C1000209102023091030240910402509105027A
:102C20000E94F01D20E030E048E453E40E94F01DD3
:102C300020E030E04AE754E40E94621C6093FE0109
:102C40007093FF018093000290930102A701960107
:102C50000E947F1B60935702709358028093590221
:102C600090935A0220E030E044EB52E460910E026F
:102C700070910F0280911002909111020E947F1BAF
:102C80009B01AC016091FA017091FB018091FC0104
:102C90009091FD010E947E1B209108013091090155
:102CA00040910A0150910B010E94F01D6B017C01C3
:102CB0002091F2013091F3014091F4015091F5011E
:102CC0000E947F1B2091F6013091F7014091F8019D
:102CD0005091F9010E94F01D20E030E048E453E4F7
:102CE0000E94F01D20E030E04AE754E40E94621C9C
:102CF0006093F2017093F3018093F4019093F501D6
:102D0000A70196010E947F1B60935F02709360028F
:102D1000809361029093620220E030E044EB52E441
:102D20006091120270911302809114029091150229
:102D30000E947F1B9B01AC016091EE017091EF013D
:102D40008091F0019091F1010E947E1B209104017D
:102D50003091050140910601509107010E94F01D3C
:102D60006B017C012091E6013091E7014091E8017F
:102D70005091E9010E947F1B2091EA013091EB0103
:102D80004091EC015091ED010E94F01D20E030E0F7
:102D900048E453E40E94F01D20E030E04AE754E4A8
:102DA0000E94621C6093E6017093E7018093E80142
:102DB0009093E901A70196010E947F1B60935B023B
:102DC00070935C0280935D0290935E020E941F08E4
:102DD000609363027093640280936502909366022D
:102DE000C0905F02D0906002E0906102F0906202B9
:102DF00020E030E044E353E4C701B6010E94E31D44
:102E000018160CF4AAC080905B0290905C02A0900F
:102E10005D02B0905E0220E030E044E353E4C5017F
:102E2000B4010E94E31D18160CF48DC040905702A7
:102E3000509058026090590270905A0220E030E0A1
:102E400044E353E4C301B2010E94E31D18160CF0E1
:102E50009EC020E030E044E353E4C701B6010E9485
:102E6000E31D18160CF479C020E030E044E353E48D
:102E700060915B0270915C0280915D0290915E02B4
:102E80000E94E31D18160CF475C020E030E044E306
:102E900053E46091570270915802809159029091C9
:102EA0005A020E94E31D181664F480E090E0A4E347
:102EB000B3E48093570290935802A0935902B093C1
:102EC0005A0220915F02309160024091610250915C
:102ED000620260E070E084E393E40E947E1B0E9443
:102EE000D41C86E194E00E94970A60915B02709185
:102EF0005C0280915D0290915E020E94D41C83E18D
:102F000094E00E94970A6091570270915802809154
:102F1000590290915A020E94D41C80E194E00E94D0
:102F2000970A1092E4010E94250E182F80935602F2
:102F30000E941E0F8093680214FF7CC00E943A0E0C
:102F40000E9422060CCE20E030E044E353E4C701A7
:102F5000B6010E94E31D18166CF480E090E0A4E333
:102F6000B3E480935F0290936002A0936102B093F8
:102F700062027ACF80E090E0A4E3B3E480935B0246
:102F800090935C02A0935D02B0935E027ECF20E03E
:102F900030E0A901C701B6010E945D1C1816F4F4C7
:102FA00020E030E0A901C501B4010E945D1C20E0D1
:102FB00030E0A90118160CF0BFC2C301B2010E9493
:102FC0005D1C18160CF47DCF20E030E0A901C7018C
:102FD000B6010E945D1C18160CF4B6C210925F0276
:102FE00010926002109261021092620220E030E0C2
:102FF000A901C501B4010E945D1C181644F010928D
:103000005B0210925C0210925D0210925E0220E060
:1030100030E0A901C301B2010E945D1C18160CF436
:1030200050CF1092570210925802109259021092EB
:103030005A0247CF11FF84CF1091680200916702B6
:10304000101728F40E941E0F80936802F5CF602F9E
:1030500086E192E00E940B0F101B10936802C09053
:103060001A02D12CDC2CCC2480911B02C82AE090BF
:103070001E02F12CFE2CEE2480911F02E82A009102
:10308000220210E0102F002780912302082B60916C
:10309000160270E0762F662780911702682B072EA4
:1030A000000C880B990B0E940C1D20E030E040E8DA
:1030B00058E30E94F01D4B015C016093F403709390
:1030C000F5038093F6039093F703B601DD0C880BAC
:1030D000990B0E940C1D20E030E040E858E30E946C
:1030E000F01D2B013C016093F8037093F90380936A
:1030F000FA039093FB03B701FF0C880B990B0E9416
:103100000C1D20E030E040E858E30E94F01DCB5653
:10311000DF4F688379838A839B83C559D04060934E
:10312000FC037093FD038093FE039093FF03B801AB
:10313000110F880B990B0E940C1D20E030E040E835
:1031400058E30E94F01DC756DF4F688379838A8356
:103150009B83C959D040609300047093010480930D
:103160000204909303049B01AC01C301B2010E94CD
:10317000F01D6B017C01CB56DF4F288139814A81DC
:103180005B81C559D040C501B4010E94F01D9B016F
:10319000AC01C701B6010E947E1B9B01AC010E94DD
:1031A0007F1BC356DF4F688379838A839B83CD5906
:1031B000D0406093040470930504809306049093B8
:1031C0000704A3019201C501B4010E94F01D6B0127
:1031D0007C01C756DF4F288139814A815B81C959FB
:1031E000D040CB56DF4F688179818A819B81C55958
:1031F000D0400E94F01D9B01AC01C701B6010E94A6
:103200007F1B9B01AC010E947F1BCF55DF4F688362
:1032100079838A839B83C15AD0406093080470935A
:10322000090480930A0490930B04A5019401C5013D
:10323000B4010E94F01D6B017C01A3019201C30146
:10324000B2010E94F01D9B01AC01C701B6010E94B2
:103250007E1B6B017C01CB56DF4F288139814A816F
:103260005B81C559D040CA01B9010E94F01D9B0184
:10327000AC01C701B6010E947E1B6B017C01C756E1
:10328000DF4F288139814A815B81C959D040CA0109
:10329000B9010E94F01D9B01AC01C701B6010E945B
:1032A0007F1B6B017C0160930C0470930D04809371
:1032B0000E0490930F04A5019401C501B4010E946E
:1032C0007F1BCB55DF4F688379838A839B83C55AE5
:1032D000D040A3019201C301B2010E947F1BC755D8
:1032E000DF4F688379838A839B83C95AD040A501C5
:1032F0009401CB55DF4F688179818A819B81C55AC2
:10330000D0400E94F01D4B015C01A3019201C75502
:10331000DF4F688179818A819B81C95AD0400E94A0
:10332000F01D9B01AC01C501B4010E947F1B20E090
:1033300030E040E85FE30E947E1B4B015C01CB560E
:10334000DF4F288139814A815B81C559D040C755FB
:10335000DF4F688179818A819B81C95AD0400E9460
:10336000F01D2B013C01C756DF4F288139814A816E
:103370005B81C959D040CB55DF4F688179818A8103
:103380009B81C55AD0400E94F01D9B01AC01C30136
:10339000B2010E947E1BA50194010E94FE1B4B01FD
:1033A0005C01A7019601C701B6010E94F01D6B01E7
:1033B0007C01CF55DF4F288139814A815B81C15A19
:1033C000D040CA01B9010E94F01DA70196010E94D8
:1033D0007F1B0E94631E9B01AC01C356DF4F6881B7
:1033E00079818A819B81CD59D0400E94621C0E94C4
:1033F0002E1C2B013C01C356DF4F288139814A81A5
:103400005B81CD59D040CA01B9010E94F01DA701CE
:1034100096010E947F1B0E94631E9B01AC01CF5549
:10342000DF4F688179818A819B81C15AD0400E9497
:10343000621C0E942E1C6B017C0120EE3EE245E6E0
:1034400052E4C501B4010E94F01D60930A0270931A
:103450000B0280930C0290930D0220EE3EE245E6B3
:1034600052E4C301B2010E94F01D60930E027093FA
:103470000F02809310029093110220EE3EE245E687
:1034800052E4C701B6010E94F01D609312027093CE
:10349000130280931402909315020E941F0800915A
:1034A0001001109111012091120130911301DC01E2
:1034B000CB01801B910BA20BB30B813D9740A10563
:1034C000B10508F43DCD85EC91E00E94AD0F60910F
:1034D0000A0270910B0280910C0290910D020E94E1
:1034E000DE0F84ED91E00E945A0F60910E02709100
:1034F0000F0280911002909111020E94DE0F84ED64
:1035000091E00E945A0F6091120270911302809113
:103510001402909115020E94DE0F8EE891E00E9445
:10352000AD0F0E941F0860931001709311018093EA
:1035300012019093130104CDC701B6010E945D1CD6
:1035400018160CF45CCD4ACD20E030E0A901C5018D
:10355000B4010E945D1C18160CF463CD50CDEBE451
:10356000F3E01382128288EE93E0A0E0B0E084835F
:103570009583A683B78320E231E03183208325EC55
:1035800030E03587248724EC30E03787268720EC2D
:1035900030E0318B208B21EC30E0338B228B22EC1E
:1035A00030E0358B248B26EC30E0378B268B118E68
:1035B000128E138E148EE8EEF3E01382128284834F
:1035C0009583A683B78384E391E09183808388E623
:1035D0008093190486E194E00E94920B83E194E0C9
:1035E0000E94920B80E194E00E94920BE4E0F4E0F0
:1035F000108211821282138214821582168217821F
:103600001086118612861386E4EFF3E080E090E0E6
:10361000A0E8BFE380839183A283B38314821582E1
:1036200016821782108611861286138614861586D6
:10363000168617860895052E97FB1EF400940E94A7
:10364000321B57FD07D00E944D1B07FC03D04EF4E0
:103650000C94321B50954095309521953F4F4F4F1C
:103660005F4F089590958095709561957F4F8F4F2E
:103670009F4F08950E946F1BA59F900DB49F900DC2
:10368000A49F800D911D11240895B7FF0C943A1B3F
:103690000E943A1B821B930B0895A1E21A2EAA1BCB
:1036A000BB1BFD010DC0AA1FBB1FEE1FFF1FA217F2
:1036B000B307E407F50720F0A21BB30BE40BF50BEF
:1036C000661F771F881F991F1A9469F76095709578
:1036D000809590959B01AC01BD01CF010895A29FFB
:1036E000B001B39FC001A39F700D811D1124911DD6
:1036F000B29F700D811D1124911D08955058BB2754
:10370000AA270E94961B0C94A91D0E949B1D38F0AD
:103710000E94A21D20F039F49F3F19F426F40C9466
:10372000711D0EF4E095E7FB0C946B1DE92F0E94D0
:10373000BA1D58F3BA17620773078407950720F07C
:1037400079F4A6F50C94DC1D0EF4E0950B2EBA2F3F
:10375000A02D0B01B90190010C01CA01A001112497
:10376000FF27591B99F0593F50F4503E68F11A1643
:10377000F040A22F232F342F4427585FF3CF4695D4
:1037800037952795A795F0405395C9F77EF41F16F6
:10379000BA0B620B730B840BBAF09150A1F0FF0FC0
:1037A000BB1F661F771F881FC2F70EC0BA0F621FAC
:1037B000731F841F48F4879577956795B795F7959C
:1037C0009E3F08F0B0CF9395880F08F09927EE0F31
:1037D0009795879508950E949B1D60F080E891E081
:1037E00009F49EEF0E94A21D28F040E851E071F418
:1037F0005EEF0CC00C94711D0C94DC1DE92FE07879
:103800000E94BA1D40F3092E052AB1F32617370787
:103810004807590738F00E2E07F8E02569F0E02533
:10382000E0640AC0EF6307F8009407FADB01B9010E
:103830009D01DC01CA01AD01EF930E94791C0E9439
:10384000A91D0E942E1C5F91552339F02BED3FE0FE
:1038500049E450FD49EC0C947F1B0895DF93DD276C
:10386000B92FBF7740E85FE31616170648075B07D6
:1038700018F4D92F0E94E81D9F938F937F936F9325
:103880000E94A31EE8E6F0E00E94741D0E94A91D9C
:103890002F913F914F915F910E94031EDD2351F0C4
:1038A0009058A2EA2AED3FE049EC5FE3D0785D272B
:1038B0000E94961BDF910C94A91D0E94471D08F4DD
:1038C00081E008950E94761C0C94A91D0E94A21DFF
:1038D00058F00E949B1D40F029F45F3F29F00C94A2
:1038E0006B1D51110C94DD1D0C94711D0E94BA1DAD
:1038F00068F39923B1F3552391F3951B550BBB271F
:10390000AA2762177307840738F09F5F5F4F220F63
:10391000331F441FAA1FA9F335D00E2E3AF0E0E85A
:1039200032D091505040E695001CCAF72BD0FE2FA4
:1039300029D0660F771F881FBB1F26173707480738
:10394000AB07B0E809F0BB0B802DBF01FF279358F0
:103950005F4F3AF09E3F510578F00C946B1D0C942C
:10396000DD1D5F3FE4F3983ED4F386957795679528
:10397000B795F7959F5FC9F7880F911D9695879525
:1039800097F90895E1E0660F771F881FBB1F621744
:1039900073078407BA0720F0621B730B840BBA0B02
:1039A000EE1F88F7E09508950E94DB1C6894B11122
:1039B0000C94DD1D08950E94C21D88F09F5798F059
:1039C000B92F9927B751B0F0E1F0660F771F881F24
:1039D000991F1AF0BA95C9F714C0B13091F00E943E
:1039E000DC1DB1E008950C94DC1D672F782F88272B
:1039F000B85F39F0B93FCCF3869577956795B39565
:103A0000D9F73EF490958095709561957F4F8F4FD3
:103A10009F4F0895E89409C097FB3EF490958095D8
:103A2000709561957F4F8F4F9F4F9923A9F0F92F84
:103A300096E9BB279395F695879577956795B79502
:103A4000F111F8CFFAF4BB0F11F460FF1BC06F5FE8
:103A50007F4F8F4F9F4F16C0882311F096E911C0FA
:103A6000772321F09EE8872F762F05C0662371F01B
:103A700096E8862F70E060E02AF09A95660F771F2F
:103A8000881FDAF7880F9695879597F90895990F0B
:103A90000008550FAA0BE0E8FEEF16161706E80718
:103AA000F907C0F012161306E407F50798F0621B39
:103AB000730B840B950B39F40A2661F0232B242B0E
:103AC000252B21F408950A2609F4A140A6958FEF2D
:103AD000811D811D089597F99F6780E870E060E07F
:103AE00008959FEF80EC0895DF93CF931F930F937A
:103AF000FF92EF92DF927B018C01689406C0DA2E70
:103B0000EF010E94031EFE01E894A59125913591D5
:103B100045915591A6F3EF010E94961BFE01970176
:103B2000A801DA9469F7DF90EF90FF900F911F9151
:103B3000CF91DF91089500240A94161617061806EF
:103B40000906089500240A941216130614060506A1
:103B50000895092E0394000C11F4882352F0BB0F32
:103B600040F4BF2B11F460FF04C06F5F7F4F8F4F95
:103B70009F4F089557FD9058440F551F59F05F3FD0
:103B800071F04795880F97FB991F61F09F3F79F07F
:103B900087950895121613061406551FF2CF469501
:103BA000F1DF08C0161617061806991FF1CF869583
:103BB0007105610508940895E894BB276627772767
:103BC000CB0197F908950E94471D08F48FEF0895DF
:103BD0009B01AC0160E070E080E89FE30C94621C04
:103BE0000E94031E0C94A91D0E949B1D38F00E9488
:103BF000A21D20F0952311F00C946B1D0C94711DE7
:103C000011240C94DD1D0E94BA1D70F3959FC1F321
:103C1000950F50E0551F629FF001729FBB27F00D7A
:103C2000B11D639FAA27F00DB11DAA1F649F6627CF
:103C3000B00DA11D661F829F2227B00DA11D621F1E
:103C4000739FB00DA11D621F839FA00D611D221FD8
:103C5000749F3327A00D611D231F849F600D211DBC
:103C6000822F762F6A2F11249F5750409AF0F1F03F
:103C700088234AF0EE0FFF1FBB1F661F771F881FA8
:103C800091505040A9F79E3F510580F00C946B1D58
:103C90000C94DD1D5F3FE4F3983ED4F38695779551
:103CA0006795B795F795E7959F5FC1F7FE2B880F4E
:103CB000911D9695879597F9089519F416F40C942B
:103CC000711D0C94AC1E0E94C21DB8F39923C9F358
:103CD000B6F39F57550B87FF0E94BA1E0024A0E63B
:103CE00040EA900180585695979528F4805C660FBD
:103CF000771F881F20F026173707480730F4621B0C
:103D0000730B840B202931294A2BA695179407940D
:103D1000202531254A2758F7660F771F881F20F086
:103D200026173707480730F4620B730B840B200DFE
:103D3000311D411DA09581F7B901842F9158880F3D
:103D40009695879508959B01AC010C94F01D0E94F7
:103D5000471D880B990B08959F3F31F0915020F437
:103D6000879577956795B795880F911D9695879557
:103D700097F9089591505040660F771F881FD2F72A
:103D80000895991B79E004C0991F961708F0961BB7
:103D9000881F7A95C9F780950895EE0FFF1F05904B
:103DA000F491E02D0994CF93DF938230910510F4C4
:103DB00082E090E0E0912E04F0912F0420E030E0CA
:103DC000C0E0D0E0309711F1408151814817590788
:103DD000C0F04817590761F482819381209719F048
:103DE0009B838A832BC090932F0480932E0426C03C
:103DF0002115310519F04217530718F49A01BE0135
:103E0000DF01EF010280F381E02DDCCF21153105C8
:103E100009F1281B390B2430310590F412968D914D
:103E20009C9113976115710521F0FB0193838283A7
:103E300004C090932F0480932E04FD01329644C059
:103E4000FD01E20FF31F81939193225031092D93CD
:103E50003C933AC020912C0430912D04232B41F443
:103E6000209116013091170130932D0420932C04DA
:103E700020911401309115012115310541F42DB720
:103E80003EB74091180150911901241B350BE09168
:103E90002C04F0912D04E217F307A0F42E1B3F0B26
:103EA0002817390778F0AC014E5F5F4F24173507AC
:103EB00048F04E0F5F1F50932D0440932C048193C4
:103EC000919302C0E0E0F0E0CF01DF91CF9108953F
:103ED0000F931F93CF93DF93009709F48CC0FC01DD
:103EE00032971382128200912E0410912F04011533
:103EF000110581F420813181820F931F20912C04C0
:103F000030912D042817390779F5F0932D04E093AB
:103F10002C0471C0D80140E050E0AE17BF0750F448
:103F200012962D913C911397AD012115310509F1A0
:103F3000D901F3CF9D01DA0133832283608171813E
:103F4000860F971F8217930769F4EC012881398146
:103F5000260F371F2E5F3F4F318320838A819B813D
:103F600093838283452B29F4F0932F04E0932E044E
:103F700042C01396FC93EE931297ED01499159912B
:103F80009E01240F351FE217F30771F480819181A0
:103F9000840F951F029611969C938E938281938134
:103FA00013969C938E931297E0E0F0E0D80112965E
:103FB0008D919C911397009719F0F8018C01F6CF21
:103FC0008D919C9198012E5F3F4F820F931F2091FE
:103FD0002C0430912D042817390769F4309729F4FF
:103FE00010922F0410922E0402C01382128210939A
:103FF0002D0400932C04DF91CF911F910F91089510
:10400000A0E0B0E0E6E0F0E20C94E920EC010097DB
:1040100021F4CB010E94D31EB8C0FC01E60FF71FAC
:104020009C0122503109E217F30708F4ACC0D90112
:104030000D911C91119706171707B0F00530110567
:1040400008F49FC0C80104978617970708F499C021
:1040500002501109061B170B019311936D937C936A
:10406000CF010E94681F8DC05B01A01AB10A4C01EC
:10407000800E911EA0912E04B0912F0440E050E0DC
:10408000E12CF12C109709F44AC0A815B905D1F517
:104090006D907C901197630182E0C80ED11CCA1408
:1040A000DB0480F1A3014A195B096A0182E0C80EB2
:1040B000D11C1296BC9012971396AC91B5E0CB161A
:1040C000D10440F0B282A38351834083D9016D9320
:1040D0007C930AC00E5F1F4FC301800F911FF9012F
:1040E00091838083EB2DFA2FE114F10431F0D70195
:1040F0001396FC93EE93129744C0F0932F04E09331
:104100002E043FC08D919C9111974817590708F4D0
:10411000AC017D0112960D90BC91A02DB3CF809182
:104120002C0490912D0488159905E1F44617570742
:10413000C8F48091140190911501009741F48DB756
:104140009EB74091180150911901841B950BE817F7
:10415000F907C8F4F0932D04E0932C04F90171835E
:1041600060830FC0CB010E94D31E7C01009759F0E1
:10417000A801BE010E94DC20CE010E94681FC70179
:1041800004C0CE0102C080E090E0CDB7DEB7EEE023
:104190000C94052181E090E0F8940C941C21FB0123
:1041A000DC0104C08D910190801921F441505040F0
:1041B000C8F7881B990B0895FB01DC0102C0019030
:1041C0000D9241505040D8F708952F923F924F9250
:1041D0005F926F927F928F929F92AF92BF92CF9297
:1041E000DF92EF92FF920F931F93CF93DF93CDB7A0
:1041F000DEB7CA1BDB0B0FB6F894DEBF0FBECDBF18
:1042000009942A88398848885F846E847D848C84E8
:104210009B84AA84B984C884DF80EE80FD800C81F1
:104220001B81AA81B981CE0FD11D0FB6F894DEBFD4
:0C4230000FBECDBFED010895F894FFCF44
:10423C00590659060000803F0000803F0000803F77
:10424C00D0070000000030048000E80300000000EC
:10425C002C069D0DDA0400063505E90415059905B3
:10426C0000000000E806B806180794065A06A406D3
:10427C009506496E697469616C6973696E672E2E57
:10428C002E00434F4E4E454354494E4720544F2029
:10429C004D5055004D505520434F4E4E45435420E4
:1042AC005355434345535346554C00434F4E4E458F
:1042BC004354494F4E204552524F523A000D0A007A
:1042CC0043414E4E4F5420434F4E4E454354205481
:1042DC004F204D5055212E200A205245434F4E4E13
:1042EC0045435420414E44205452592041474149A2
:1042FC004E2E2E2E0059415709504954434809520D
:10430C004F4C4C0009006E616E00696E66006F7652
:02431C00660039
:107E0000112484B714BE81FFF0D085E080938100F7
:107E100082E08093C00088E18093C10086E0809377
:107E2000C20080E18093C4008EE0C9D0259A86E02C
:107E300020E33CEF91E0309385002093840096BBD3
:107E4000B09BFECF1D9AA8958150A9F7CC24DD24C4
:107E500088248394B5E0AB2EA1E19A2EF3E0BF2EE7
:107E6000A2D0813461F49FD0082FAFD0023811F036
:107E7000013811F484E001C083E08DD089C08234E0
:107E800011F484E103C0853419F485E0A6D080C0E4
:107E9000853579F488D0E82EFF2485D0082F10E0AE
:107EA000102F00270E291F29000F111F8ED06801E7
:107EB0006FC0863521F484E090D080E0DECF843638
:107EC00009F040C070D06FD0082F6DD080E0C81688
:107ED00080E7D80618F4F601B7BEE895C0E0D1E017
:107EE00062D089930C17E1F7F0E0CF16F0E7DF06D8
:107EF00018F0F601B7BEE89568D007B600FCFDCFD4
:107F0000A601A0E0B1E02C9130E011968C91119780
:107F100090E0982F8827822B932B1296FA010C0160
:107F200087BEE89511244E5F5F4FF1E0A038BF0790
:107F300051F7F601A7BEE89507B600FCFDCF97BE46
:107F4000E89526C08437B1F42ED02DD0F82E2BD052
:107F50003CD0F601EF2C8F010F5F1F4F84911BD097
:107F6000EA94F801C1F70894C11CD11CFA94CF0C13
:107F7000D11C0EC0853739F428D08EE10CD085E9AC
:107F80000AD08FE07ACF813511F488E018D01DD067
:107F900080E101D065CF982F8091C00085FFFCCF94
:107FA0009093C60008958091C00087FFFCCF809118
:107FB000C00084FD01C0A8958091C6000895E0E648
:107FC000F0E098E1908380830895EDDF803219F02E
:107FD00088E0F5DFFFCF84E1DECF1F93182FE3DFCA
:107FE0001150E9F7F2DF1F91089580E0E8DFEE27F6
:047FF000FF270994CA
:027FFE00040479
:0400000300007E007B
:00000001FF